:100000000C943B010C946C010C946C010C946C01ED
:100010000C946C010C946C010C946C010C946C01AC
:100020000C946C010C946C010C946C010C946C019C
:100030000C946C010C946C010C946C010C946C018C
:100040000C946C010C9435020C946C010C946C01B2
:100050000C946C010C946C010C946C010C947B0559
:100060000C946C010C940B0A0C94D70A0C946C0140
:100070000C946C010C946C010C946C010C946C014C
:100080000C9463020C946C010C946C010C946C0144
:100090000C943E0A0C94160B0C946C010C946C019D
:1000A0000C946C010C946C010C9491020C946C01F6
:1000B0000C946C010C946C010C946C010C94BF02B8
:1000C0000C946C010C946C010C946C010C94710AEE
:1000D0000C94550B0C946C010C94A40A0C94940B86
:1000E0000C946C0189068C067F068306C306900675
:1000F00094069A069E06A206A806AC06B006C3069B
:10010000B606BA06BE060C94A4090C945B0C0C94BB
:100110009A060C94B6060C9484090C9494060C94DC
:10012000BA060C9458090C949E060C9468090C9419
:10013000B0060C94AF090C94A8060C94C3060C945A
:100140007F060C9490060C94BE060C94A2060C94A8
:1001500083060C9489060C948A040C948C060C94E7
:1001600094040C94AC060C9430070000090A0208B1
:100170000B0C0D0706030401000000000000000046
:10018000000000000000000000000000000000006F
:1001900000000000000011100F000000000000002F
:1001A000000000000000000000000000000000004F
:1001B0000102102020080810204010204080020179
:1001C000020108040201010204081020408080405E
:1001D000201008040201800402018040201008045D
:1001E00002010804020101020408102040800102FB
:1001F00004081020408005050505070508080808C3
:10020000020202020A0A08080404040401010101AE
:1002100001010101030303030303030304070707A9
:100220000C0C0C0C0C0C0C0C02020202060606064E
:10023000060606060B0B0B0B0B0B0B0B000022002C
:10024000250028002B002E003100340002010000A0
:10025000050108010B0100002100240027002A00ED
:100260002D003000330001010000040107010A01E4
:100270008A045B0C940411241FBECFEFD1E2DEBFD1
:10028000CDBF00E00CBF13E0A0E0B2E0EAEDF0E289
:1002900000E00BBF02C007900D92A833B107D9F759
:1002A00026E0A8E3B3E001C01D92AC38B207E1F745
:1002B00011E0CAE3D1E000E006C021970109802FD8
:1002C000FE010E943910C833D10780E00807A9F762
:1002D0000E9498040C94AB0F0C940000CF92DF9214
:1002E000EF92FF920F931F93CF93DF936C018B01DB
:1002F0007A01EC01CD5BDC4F888187FF04C0FB01F4
:100300001182108224C08CE08C9D90018D9D300D57
:1003100011248881A901480F511D87FD5A958091AC
:10032000420390E04817590794F48881A901480FC7
:10033000511D87FD5A95CA01FA01EE0FFF1F8E0F5E
:100340009F1FFC01E95BFC4F808186FD19C08881FD
:100350008F5F88838CE08C9D90018D9D300D1124E2
:100360008881A901480F511D87FD5A95809142034C
:1003700090E048175907BCF488818C3044F113C0D1
:100380008881280F311D87FD3A95F901EE0FFF1F77
:100390002E0F3F1FF901E95BFC4F808160E08F73F6
:1003A0000E940007D4CFF8018081918104968034A7
:1003B0009C4918F480E49CE904C0F8018081918193
:1003C0000496F701918380838FEF888345C0F801FD
:1003D000408151818881B901680F711D87FD7A952F
:1003E000CB01FB01EE0FFF1F8E0F9F1FFC01E95B8E
:1003F000FC4F81819281840F951FF7019183808347
:100400008881A901480F511D87FD5A95CA01FA013B
:10041000EE0FFF1F8E0F9F1FFC01E95BFC4F8081D9
:1004200086FF1AC08881280F311D87FD3A95F90192
:10043000EE0FFF1F2E0F3F1FF901E95BFC4F80817C
:1004400061E08F73DF91CF911F910F91FF90EF903B
:10045000DF90CF900C940007DF91CF911F910F9107
:10046000FF90EF90DF90CF9008951F920F920FB6FC
:100470000F9211240BB60F922F933F934F935F93DC
:100480006F937F938F939F93AF93BF93EF93FF935C
:1004900048E850E064E870E081E090E00E946E017E
:1004A000FF91EF91BF91AF919F918F917F916F914C
:1004B0005F914F913F912F910F900BBE0F900FBE08
:1004C0000F901F9018951F920F920FB60F92112444
:1004D0000BB60F922F933F934F935F936F937F933E
:1004E0008F939F93AF93BF93EF93FF9348E950E0AF
:1004F00064E970E082E090E00E946E01FF91EF916C
:10050000BF91AF919F918F917F916F915F914F912B
:100510003F912F910F900BBE0F900FBE0F901F9029
:1005200018951F920F920FB60F9211240BB60F92CF
:100530002F933F934F935F936F937F938F939F93EB
:10054000AF93BF93EF93FF9348EA50E064EA70E003
:1005500083E090E00E946E01FF91EF91BF91AF9117
:100560009F918F917F916F915F914F913F912F91CB
:100570000F900BBE0F900FBE0F901F9018951F92FB
:100580000F920FB60F9211240BB60F922F933F9339
:100590004F935F936F937F938F939F93AF93BF938B
:1005A000EF93FF9348E251E064E271E080E090E075
:1005B0000E946E01FF91EF91BF91AF919F918F913A
:1005C0007F916F915F914F913F912F910F900BBE53
:1005D0000F900FBE0F901F901895FC019091420351
:1005E0009033A0F481E0890F809342039083892F98
:1005F00090E0FC01EE0FFF1F8E0F9F1FFC01E95BD7
:10060000FC4F88EB9BE09283818308958FEF80837A
:100610000895DF92EF92FF920F931F93CF93DF9392
:10062000EC01D62E7A0189018881803308F06AC0F6
:1006300061E08D2D0E94C4068881E82FF0E09F01C3
:10064000220F331FE20FF31FE95BFC4F9D2D9F73B9
:100650002081207CD22ED92AD08260E272E0AB01C8
:100660004E195F0957FF02C04D5F5F4F5595479583
:1006700055954795498340E659E09A01201B310B77
:1006800037FF02C02D5F3F4F35952795359527954C
:100690002A836CE00E94EC0F9CE0899FB00111243A
:1006A00040E050E09A01260F371FF901EE0FFF1FBF
:1006B0002E0F3F1FF901E95BFC4F908196FD16C09C
:1006C0004F5F5F4F4C30510569F7813021F5109233
:1006D000800082E080938100109285001092840057
:1006E000B19A80916F00826080936F00E881F0E0A2
:1006F000CF01880F991FE80FF91FE95BFC4F80813C
:10070000806480838881DF91CF911F910F91FF904A
:10071000EF90DF900895823061F410929000809302
:100720009100109295001092940088BB8093710004
:10073000DDCF833069F41092A00082E08093A100A5
:100740001092A5001092A40089BB80937200CECFB6
:100750008111CCCF1092200182E080932101109270
:100760002501109224018ABB80937300BFCFFC0146
:100770009081903380F5818128E830E0281B310991
:1007800087FD3395220F331F220F331F6217730724
:100790007CF0828128E532E0281B310987FD339502
:1007A000220F331F220F331F621773070CF49B01B4
:1007B00022503109220F331F4FB7F894892F90E050
:1007C000FC01EE0FFF1F8E0F9F1FFC01E95BFC4F2A
:1007D000328321834FBF0895AF92BF92CF92DF92B1
:1007E000EF92FF920F931F93CF93DF93EC01603250
:1007F00082E078070CF03FC077FD06C0653B7105CD
:100800002CF064EB70E002C060E070E0898128E8C1
:1008100030E05901A81AB10887FDB394AA0CBB1C9B
:10082000AA0CBB1C0B2C000CCC08DD08072E000CFE
:10083000880B990B2A8108E512E0021B110927FD9C
:100840001395000F111F000F111F012E000C220B1A
:10085000330B3F932F931F930F9314EBE12EF12C47
:1008600000E010E020E030E0A9010E942D0D0F9083
:100870000F900F900F90CE01DF91CF911F910F91AC
:10088000FF90EF90DF90CF90BF90AF900C94B703A4
:100890000E94100620910002309101024091020254
:1008A00050910302609104027091050288E393E085
:1008B0000E94090340E855E260E070E086E494E0BD
:1008C0000E94D30B6EE072E086E494E00E948807F9
:1008D00061E372E086E494E00E94880763E672E0D8
:1008E00086E494E00E94880766E872E086E494E07B
:1008F0000E9488076BEB72E086E494E00E94880710
:100900006FEE72E086E494E00E94880786E494E04B
:100910000C94740762E672E08BE393E00E94BF08D8
:1009200088E393E00C94ED028BE393E00C94510880
:100930000E94480410E0F12CD0E000E086E494E04E
:100940000E945809892B79F0112381F086E494E004
:100950000E945809892B51F46AE070E080E090E031
:100960000E94EA05F3CF1111F1CF2AC086E494E08A
:100970000E948409C82F682F86E494E00E946D07C6
:10098000C337D9F0002379F0CD3059F01CF4CA30C8
:1009900041F009C0C83769F0CA3729F4F12CD1E019
:1009A000CDCF10E0CBCF6C2F8BE393E00E941A09E0
:1009B000C5CFFF24F394D0E0C1CF11E001E0BECF5A
:1009C00080913F0390914003892B09F48DC086E408
:1009D00094E00E947407F11002C0DD2379F1E091E8
:1009E0003803F0E0CF01880F991FE80FF91FE95B8A
:1009F000FC4F80818F7B80838BE393E0DD2339F094
:100A00000E944D09709303026093020206C00E9487
:100A10004D09709301026093000220910002309111
:100A20000102409102025091030260910402709110
:100A3000050288E393E00E9409030AC0002341F005
:100A40008BE393E00E944D097093070260930602C6
:100A500064E273E08BE393E00E942E09882381F027
:100A60008091060290910702019797FD05C090932F
:100A700007028093060204C0109207021092060239
:100A800066E273E08BE393E00E942E09882349F02D
:100A9000809106029091070201969093070280933D
:100AA000060260910602709107024AE050E0603948
:100AB00081E078076CF086E494E00E943A08609147
:100AC00006027091070288E393E00E94B7030CC00E
:100AD00086E494E00E943A08609106027091070251
:100AE00088E393E00E94EC0362E672E08BE393E01C
:100AF0000E94D5081FCF1F920F920FB60F9211249C
:100B00002F933F938F939F93AF93BF938091D8037D
:100B10009091D903A091DA03B091DB033091D70310
:100B200023E0230F2D3720F40196A11DB11D05C030
:100B300026E8230F0296A11DB11D2093D7038093B1
:100B4000D8039093D903A093DA03B093DB03809189
:100B5000DC039091DD03A091DE03B091DF030196E9
:100B6000A11DB11D8093DC039093DD03A093DE03F0
:100B7000B093DF03BF91AF919F918F913F912F91E0
:100B80000F900FBE0F901F9018953FB7F89480916B
:100B9000DC039091DD03A091DE03B091DF0326B565
:100BA000A89B05C02F3F19F00196A11DB11D3FBFA5
:100BB000BA2FA92F982F8827820F911DA11DB11D33
:100BC000BC01CD0142E0660F771F881F991F4A952F
:100BD000D1F70895CF92DF92EF92FF92CF93DF93F8
:100BE0006B017C010E94C505EB01C114D104E10435
:100BF000F10479F00E94C5056C1B7D0B683E7340C3
:100C0000A0F381E0C81AD108E108F108C851DC4F0F
:100C1000ECCFDF91CF91FF90EF90DF90CF900895D0
:100C2000789484B5826084BD84B5816084BD85B5C7
:100C3000826085BD85B5816085BDEEE6F0E080818E
:100C400081608083E1E8F0E01082808182608083AF
:100C5000808181608083E0E8F0E080818160808332
:100C6000E1EBF0E0808184608083E0EBF0E0808164
:100C700081608083E1E9F0E080818260808380810F
:100C800081608083E0E9F0E0808181608083E1EA37
:100C9000F0E0808182608083808181608083E0EAEF
:100CA000F0E0808181608083E1E2F1E08081826018
:100CB0008083808181608083E0E2F1E080818160D7
:100CC0008083EAE7F0E080818460808380818260B5
:100CD000808380818160808380818068808310929E
:100CE000C100089590E0FC013197E131F10508F071
:100CF0004AC08827EE58FF4F8F4F0C9439108091CF
:100D000080008F7703C0809180008F7D809380006A
:100D1000089584B58F7702C084B58F7D84BD089512
:100D20008091B0008F7703C08091B0008F7D809359
:100D3000B0000895809190008F7707C08091900057
:100D40008F7D03C080919000877F809390000895ED
:100D50008091A0008F7707C08091A0008F7D03C095
:100D60008091A000877F8093A0000895809120014A
:100D70008F7707C0809120018F7D03C08091200173
:100D8000877F809320010895CF93DF9390E0FC014B
:100D9000E055FE4F2491FC01EA50FE4F84918823D8
:100DA00061F190E0880F991FFC01EA5AFD4FC5914F
:100DB000D491FC01E45CFD4FA591B491611109C08F
:100DC0009FB7F8948881209582238883EC912E2305
:100DD0000BC0623061F49FB7F8943881822F809500
:100DE00083238883EC912E2B2C939FBF06C08FB753
:100DF000F894E8812E2B28838FBFDF91CF9108953F
:100E00001F93CF93DF93282F30E0F901E659FE4F6F
:100E10008491F901E055FE4FD491F901EA50FE4F5B
:100E2000C491CC23C9F0162F81110E947206EC2FB9
:100E3000F0E0EE0FFF1FE45CFD4FA591B4918FB77A
:100E4000F894111105C09C91ED2FE095E92302C0A3
:100E5000EC91ED2BEC938FBFDF91CF911F91089513
:100E6000CF92DF92EF92FF920F931F93CF93DF9376
:100E70006C01EB017B01E40EF51E00E010E0CE15E5
:100E8000DF0561F06991D601ED91FC910190F0814F
:100E9000E02DC6011995080F191FF1CFC801DF9188
:100EA000CF911F910F91FF90EF90DF90CF90089519
:100EB0006115710579F0FB0101900020E9F7319788
:100EC000AF01461B570BDC01ED91FC910280F381D1
:100ED000E02D199480E090E00895DC01ED91FC9103
:100EE0000190F081E02D19940F931F93CF93DF931E
:100EF000EC016DE00E946D078C016AE0CE010E945A
:100F00006D07800F911FDF91CF911F910F91089571
:100F10000F931F93CF93DF93EC010E9458078C012E
:100F2000CE010E947407800F911FDF91CF911F9116
:100F30000F9108958F929F92AF92BF92CF92DF92BE
:100F4000EF92FF920F931F93CF93DF93CDB7DEB74E
:100F5000A1970FB6F894DEBF0FBECDBF6C01142F62
:100F6000E52FCB01022F19A2223008F40AE07E01FE
:100F700021E2E20EF11C802E912CA12CB12C612FCC
:100F80007E2FA50194010E94F80F029F10191124D1
:100F900081E0E81AF1081A3014F4105D01C0195C00
:100FA000F7011083122FE32FCA01232B242B252BAB
:100FB00031F7B701C6010E945807A1960FB6F89401
:100FC000DEBF0FBECDBFDF91CF911F910F91FF907C
:100FD000EF90DF90CF90BF90AF909F908F9008954B
:100FE000CF92DF92EF92FF920F931F93CF93DF93F5
:100FF000EC016A017B012115310579F4E881F98161
:101000000190F081E02D642FDF91CF911F910F911E
:10101000FF90EF90DF90CF9019942A303105E9F4DA
:1010200077FF1AC06DE20E946D078C014427552797
:10103000BA014C195D096E097F092AE0CE010E94B0
:101040009A07800F911FDF91CF911F910F91FF9011
:10105000EF90DF90CF9008952AE0B701A601CE016E
:10106000DF91CF911F910F91FF90EF90DF90CF9084
:101070000C949A070F931F93CF93DF93EC019A017F
:10108000AB01770F660B770B0E94F0078C01CE0146
:101090000E947407800F911FDF91CF911F910F91D4
:1010A0000895FC01808191810C94EC0ECF93DF9325
:1010B000EC0188819981009711F00E94EC0E198251
:1010C00018821D821C821B821A82DF91CF910895A3
:1010D0000F931F93CF93DF93EC018B016F5F7F4FD3
:1010E000888199810E946E0D009731F099838883E1
:1010F0001B830A8381E001C080E0DF91CF911F91C3
:101100000F910895CF93DF93EC0188819981892B0A
:1011100029F08A819B818617970760F4CE010E948F
:101120006808882341F08C819D81892B19F4E8811E
:10113000F981108281E0DF91CF910895EF92FF92C3
:101140000F931F93CF93DF93EC017B018A01BA01C8
:101150000E948208811104C0CE010E94560807C077
:101160001D830C83B701888199810E94C00FCE0135
:10117000DF91CF911F910F91FF90EF900895FC01A7
:1011800011821082138212821582148216826115D6
:10119000710551F0FB0101900020E9F73197AF0193
:1011A000461B570B0C949E080895CF93DF93EC01D8
:1011B0006115710559F0FB0101900020E9F73197A5
:1011C000AF01461B570B0E949E0802C00E945608A2
:1011D000CE01DF91CF910895EF92FF920F931F936D
:1011E000CF93DF93FC01248135816115710511F4E2
:1011F00080E019C041155105A9F07B01EC018A017D
:10120000020F131FB8010E948208882389F32881E6
:1012100039818C819D81B701820F931F0E94C00F7D
:101220001D830C8381E0DF91CF911F910F91FF907F
:10123000EF900895CF93DF931F921F92CDB7DEB743
:1012400069831A8241E050E0BE016F5F7F4F0E94C8
:10125000EC080F900F90DF91CF910895FC0124814D
:101260003581232B31F421E061157105A1F0FB01DB
:1012700008C0FC01808191816115710531F421E084
:10128000FC018081882339F005C00E94B70F21E05E
:10129000892B09F020E0822F0895FC018081918143
:1012A000009711F00C94840F60E070E0CB0108957A
:1012B000FC0124853585F901E05CFF4F8081918137
:1012C000329620813181821B930B8F739927089569
:1012D000DC011C96ED91FC911D97DF01A05CBF4FD6
:1012E0002D913C91119712968D919C9111972817F1
:1012F000390739F08D919C91E80FF91F808190E0BA
:1013000008958FEF9FEF0895FC01A485B585FD0139
:10131000E05CFF4F208131813296808191812817D6
:10132000390779F080819181A80FB91F8C912081B4
:1013300031812F5F3F4F2F7333273183208390E01C
:1013400008958FEF9FEF0895FC0181A1882329F074
:10135000A489B5898C9186FFFBCF11A208950F93C4
:101360001F93CF93DF93FC01A685B7858D01005CA9
:101370001F4FE8018881998101968F739927AD01EC
:101380004E5B5F4FEA012881398182179307D1F3C1
:10139000E80128813981A20FB31F6C93A685B78518
:1013A000A05CBF4F11969C938E93A689B7892C9110
:1013B00081E090E0078C02C0880F991F0A94E2F741
:1013C000822B8C9381E081A30488F589E02D8081B4
:1013D0008064808381E090E0DF91CF911F910F9135
:1013E0000895FB01E05CFF4F208131812F5F3F4F6B
:1013F0002F733327DB01AE5BBF4F4D915C912417F8
:10140000350741F040815181DB01A40FB51F8C935A
:101410003183208308951F920F920FB60F921124EB
:101420000BB60F922F933F934F935F936F937F93DE
:101430008F939F93AF93BF93EF93FF938091C000DF
:1014400082FD07C08091C60064E476E00E94F10945
:1014500002C08091C600FF91EF91BF91AF919F9123
:101460008F917F916F915F914F913F912F910F904D
:101470000BBE0F900FBE0F901F9018951F920F92EA
:101480000FB60F9211240BB60F922F933F934F93E9
:101490005F936F937F938F939F93AF93BF93EF93DC
:1014A000FF938091C80082FD07C08091CE006CEB55
:1014B00075E00E94F10902C08091CE00FF91EF918A
:1014C000BF91AF919F918F917F916F915F914F915C
:1014D0003F912F910F900BBE0F900FBE0F901F905A
:1014E00018951F920F920FB60F9211240BB60F9200
:1014F0002F933F934F935F936F937F938F939F931C
:10150000AF93BF93EF93FF938091D00082FD07C00C
:101510008091D60064E375E00E94F10902C08091D9
:10152000D600FF91EF91BF91AF919F918F917F91E5
:101530006F915F914F913F912F910F900BBE0F9044
:101540000FBE0F901F9018951F920F920FB60F921B
:1015500011240BB60F922F933F934F935F936F938A
:101560007F938F939F93AF93BF93EF93FF9380915C
:10157000300182FD07C0809136016CEA74E00E9460
:10158000F10902C080913601FF91EF91BF91AF91B7
:101590009F918F917F916F915F914F913F912F918B
:1015A0000F900BBE0F900FBE0F901F9018951F92BB
:1015B0000F920FB60F9211240BB60F922F933F93F9
:1015C0008F939F93EF93FF932091400630914106B4
:1015D00080914206909143062817390731F4809193
:1015E000C1008F7D8093C10014C0E0914206F0914C
:1015F0004306E050FA4F20818091420690914306C5
:1016000001968F7399279093430680934206209307
:10161000C600FF91EF919F918F913F912F910F9075
:101620000BBE0F900FBE0F901F9018951F920F9238
:101630000FB60F9211240BB60F922F933F938F93F7
:101640009F93EF93FF932091B8053091B905809156
:10165000BA059091BB052817390731F48091C9006C
:101660008F7D8093C90014C0E091BA05F091BB054D
:10167000E858FA4F20818091BA059091BB050196F8
:101680008F7399279093BB058093BA052093CE0062
:10169000FF91EF919F918F913F912F910F900BBEF2
:1016A0000F900FBE0F901F9018951F920F920FB6BC
:1016B0000F9211240BB60F922F933F938F939F930A
:1016C000EF93FF93209130053091310580913205E1
:1016D000909133052817390731F48091D1008F7D1F
:1016E0008093D10014C0E0913205F0913305E051B0
:1016F000FB4F2081809132059091330501968F73C5
:10170000992790933305809332052093D600FF915B
:10171000EF919F918F913F912F910F900BBE0F9062
:101720000FBE0F901F9018951F920F920FB60F9239
:1017300011240BB60F922F933F938F939F93EF93A8
:10174000FF932091A8043091A9048091AA0490915C
:10175000AB042817390731F4809131018F7D8093D4
:10176000310114C0E091AA04F091AB04E859FB4F99
:1017700020818091AA049091AB0401968F739927E0
:101780009093AB048093AA0420933601FF91EF91CC
:101790009F918F913F912F910F900BBE0F900FBE95
:1017A0000F901F901895CF92DF92EF92FF920F93B8
:1017B0001F93CF93DF93EC016A017B014115514EDA
:1017C0006105710509F1EC89FD8981E090E008A0CF
:1017D00002C0880F991F0A94E2F7808360E079E0E5
:1017E0008DE390E0A70196010E94F80F89019A010C
:1017F000015011092109310936952795179507954B
:10180000980101151041A8F0EC89FD89108260E86B
:1018100074E88EE190E0A70196010E94F80FDA01CA
:10182000C9010197A109B109B695A7959795879523
:101830009C01E889F9893083EA89FB89208319A210
:10184000EE89FF89408181E090E09C010C8C02C010
:10185000220F331F0A94E2F7242B2083EE89FF899D
:1018600040819C010D8C02C0220F331F0A94E2F7C5
:10187000242B2083EE89FF8940819C010E8C02C0BD
:10188000220F331F0A94E2F7242B2083EE89FF896D
:1018900020810F8C02C0880F991F0A94E2F780956F
:1018A00082238083DF91CF911F910F91FF90EF9062
:1018B000DF90CF900895CF92DF92EF92FF92E6E40F
:1018C000F4E01382128288EEC82E83E0D82EE12C39
:1018D000F12CC482D582E682F7826CE273E07183D8
:1018E000608384E496E09587848780E096E097871C
:1018F000868785EC90E0918B808B84EC90E0938BD5
:10190000828B80EC90E0958B848B81EC90E0978BC0
:10191000868B82EC90E0918F808F86EC90E0938FA5
:10192000828F44E0448F33E0358F27E0268F95E0A7
:10193000978F81E080A3E4E2F4E013821282C482F4
:10194000D582E682F78271836083ACEBB5E0B58720
:10195000A487A8E7B5E0B787A687ADECB0E0B18B68
:10196000A08BACECB0E0B38BA28BA8ECB0E0B58B55
:10197000A48BA9ECB0E0B78BA68BAAECB0E0B18F3A
:10198000A08FAEECB0E0B38FA28F448F358F268F3F
:10199000978F80A3E2E0F4E013821282C482D582A2
:1019A000E682F78271836083A4E3B5E0B587A487FC
:1019B000A0EFB4E0B787A687A5EDB0E0B18BA08B10
:1019C000A4EDB0E0B38BA28BA0EDB0E0B58BA48BFF
:1019D000A1EDB0E0B78BA68BA2EDB0E0B18FA08FE8
:1019E000A6EDB0E0B38FA28F448F358F268F978FEF
:1019F00080A3E0EEF3E013821282C482D582E682F5
:101A0000F782718360836CEA74E07587648768E6A7
:101A100074E07787668765E371E0718B608B64E3C0
:101A200071E0738B628B60E371E0758B648B61E3B3
:101A300071E0778B668B62E371E0718F608F66E394
:101A400071E0738F628F448F358F268F978F80A3BD
:101A5000FF90EF90DF90CF9008954F925F926F923A
:101A60007F92AF92BF92CF92DF92EF92FF920F934D
:101A70001F93CF93DF93CDB7DEB729013A019B01C6
:101A8000AC0124193509460957098A899B89AC8913
:101A9000BD89BC01CD016A197B098C099D090E9491
:101AA000DC0FA801970124193509460957090E943E
:101AB0001A10CA01B9016A0D7B1D8C1D9D1DDF9195
:101AC000CF911F910F91FF90EF90DF90CF90BF903B
:101AD000AF907F906F905F904F9008956F927F923C
:101AE0008F929F92AF92BF92CF92DF92EF92FF922E
:101AF0000F931F93CF93DF93EC01009789F4CB01F1
:101B0000DF91CF911F910F91FF90EF90DF90CF90D9
:101B1000BF90AF909F908F907F906F900C94570ED6
:101B2000FC01E60FF71F9C0122503109E217F30771
:101B300008F4ACC0D9010D911C9111970617170735
:101B4000B0F00530110508F49FC0C801049786174E
:101B5000970708F499C002501109061B170B01934F
:101B600011936D937C93CF010E94EC0E8DC05B01AD
:101B7000A01AB10A4C01800E911EA0918A06B09164
:101B80008B0640E050E0E12CF12C109709F44AC09C
:101B9000A815B905D1F56D907C901197630182E08D
:101BA000C80ED11CCA14DB0480F1A3014A195B09D9
:101BB0006A0182E0C80ED11C1296BC90129713964F
:101BC000AC91B5E0CB16D10440F0B282A38351832F
:101BD0004083D9016D937C930AC00E5F1F4FC301F0
:101BE000800F911FF90191838083EB2DFA2FE1146F
:101BF000F10431F0D7011396FC93EE93129744C091
:101C0000F0938B06E0938A063FC08D919C911197CB
:101C10004817590708F4AC017D0112960D90BC914C
:101C2000A02DB3CF809188069091890688159905DB
:101C3000E1F446175707C8F4809108029091090211
:101C4000009741F48DB79EB740910C0250910D0260
:101C5000841B950BE817F907C8F4F0938906E09305
:101C60008806F901718360830FC0CB010E94570E73
:101C70007C01009759F0A801BE010E94AE0FCE0171
:101C80000E94EC0EC70104C0CE0102C080E090E0CB
:101C9000DF91CF911F910F91FF90EF90DF90CF9048
:101CA000BF90AF909F908F907F906F900895CF934B
:101CB000DF938230910510F482E090E0E0918A0693
:101CC000F0918B0620E030E0C0E0D0E0309711F1D9
:101CD0004081518148175907C0F04817590761F4EE
:101CE00082819381209719F09B838A832BC09093E4
:101CF0008B0680938A0626C02115310519F04217FC
:101D0000530718F49A01BE01DF01EF010280F3814D
:101D1000E02DDCCF2115310509F1281B390B2430CA
:101D2000310590F412968D919C9113976115710570
:101D300021F0FB019383828304C090938B068093F0
:101D40008A06FD01329644C0FD01E20FF31F819324
:101D50009193225031092D933C933AC020918806EB
:101D600030918906232B41F420910A0230910B0215
:101D70003093890620938806209108023091090249
:101D80002115310541F42DB73EB740910C02509119
:101D90000D02241B350BE0918806F0918906E217AD
:101DA000F307A0F42E1B3F0B2817390778F0AC017E
:101DB0004E5F5F4F2417350748F04E0F5F1F50935B
:101DC0008906409388068193919302C0E0E0F0E099
:101DD000CF01DF91CF9108950F931F93CF93DF939E
:101DE000009709F48CC0FC01329713821282009193
:101DF0008A0610918B060115110581F4208131812D
:101E0000820F931F20918806309189062817390781
:101E100079F5F0938906E093880671C0D80140E017
:101E200050E0AE17BF0750F412962D913C911397D6
:101E3000AD012115310509F1D901F3CF9D01DA0179
:101E40003383228360817181860F971F82179307E6
:101E500069F4EC0128813981260F371F2E5F3F4F2F
:101E6000318320838A819B8193838283452B29F44C
:101E7000F0938B06E0938A0642C01396FC93EE9390
:101E80001297ED01499159919E01240F351FE217D8
:101E9000F30771F480819181840F951F029611964A
:101EA0009C938E938281938113969C938E93129729
:101EB000E0E0F0E0D80112968D919C911397009785
:101EC00019F0F8018C01F6CF8D919C9198012E5F4D
:101ED0003F4F820F931F2091880630918906281763
:101EE000390769F4309729F410928B0610928A060C
:101EF00002C0138212821093890600938806DF9134
:101F0000CF911F910F9108951F93FC019927882766
:101F1000BC01E89411911032E9F3193010F01E3031
:101F2000C8F31B3251F01D3249F4689406C00E9478
:101F3000C70F610F711D811D911D119110531A3032
:101F4000B0F33EF490958095709561957F4F8F4FDB
:101F50009F4F1F910895F8940C945B10FB01DC01D6
:101F600002C001900D9241505040D8F70895FB01F6
:101F7000DC018D91019080190110D9F3990B08951E
:101F8000FB01DC0101900D920020E1F70895592F2B
:101F9000482F372F262F660F771F881F991F660F30
:101FA000771F881F991F620F731F841F951F660F6D
:101FB000771F881F991F0895DB018F939F930E94BD
:101FC0004110BF91AF91A29F800D911DA39F900DD5
:101FD000B29F900D11240895991B79E004C0991FB8
:101FE000961708F0961B881F7A95C9F78095089573
:101FF000A1E21A2EAA1BBB1BFD010DC0AA1FBB1F0D
:10200000EE1FFF1FA217B307E407F50720F0A21B7E
:10201000B30BE40BF50B661F771F881F991F1A94EB
:1020200069F760957095809590959B01AC01BD0115
:10203000CF010895052E97FB1EF400940E943110E5
:1020400057FD07D00E94F80F07FC03D04EF40C9404
:10205000311050954095309521953F4F4F4F5F4F30
:10206000089590958095709561957F4F8F4F9F4F04
:102070000895EE0FFF1F881F8BBF0790F691E02D8C
:1020800019940E944C10A59F900DB49F900DA49F91
:10209000800D911D11240895A29FB001B39FC0012E
:1020A000A39F700D811D1124911DB29F700D811D84
:1020B0001124911D089511E0CAE3D1E000E006C0AB
:1020C000802FFE010E9439102196011DCB33D107CC
:0A20D00080E00807A9F7F894FFCF9D
:1020DA00970912020C005A0000008C0680007365F2
:1020EA007269616C20736572766F20696E637265BE
:1020FA006D656E74616C207465737420636F6465BA
:10210A000074797065206120636861726163746527
:10211A007220286120746F2064656372656173653B
:10212A00206F72206420746F20696E637265617318
:10213A00652900616E6420656E74657220746F2073
:10214A006368616E676520736572766F20706F735E
:10215A006974696F6E0075736520737472696E674E
:10216A0073206C696B6520733930206F722073316C
:10217A0035303020666F72206E657720736572760F
:10218A006F20706F736974696F6E00757365207361
:10219A007472696E6773206C696B6520737A343068
:1021AA003020746F2073657420736572766F206DAA
:1021BA00696E2070756C7365207769647468007540
:1021CA00736520737472696E6773206C696B65201E
:1021DA0073783236303020746F20736574207365DB
:1021EA0072766F206D61782070756C7365207769DF
:1021FA00647468006100640000000000AF093007E1
:08220A00580984096809A409C0
:00000001FF
